{
  "contractName": "Voting",
  "abi": [
    {
      "inputs": [
        {
          "internalType": "string[]",
          "name": "candidateNames",
          "type": "string[]"
        }
      ],
      "stateMutability": "nonpayable",
      "type": "constructor"
    },
    {
      "inputs": [
        {
          "internalType": "uint256",
          "name": "",
          "type": "uint256"
        }
      ],
      "name": "candidates",
      "outputs": [
        {
          "internalType": "string",
          "name": "name",
          "type": "string"
        },
        {
          "internalType": "uint256",
          "name": "voteCount",
          "type": "uint256"
        }
      ],
      "stateMutability": "view",
      "type": "function"
    },
    {
      "inputs": [
        {
          "internalType": "address",
          "name": "",
          "type": "address"
        }
      ],
      "name": "voters",
      "outputs": [
        {
          "internalType": "bool",
          "name": "",
          "type": "bool"
        }
      ],
      "stateMutability": "view",
      "type": "function"
    },
    {
      "inputs": [
        {
          "internalType": "uint256",
          "name": "candidateIndex",
          "type": "uint256"
        }
      ],
      "name": "vote",
      "outputs": [],
      "stateMutability": "nonpayable",
      "type": "function"
    },
    {
      "inputs": [],
      "name": "getCandidates",
      "outputs": [
        {
          "components": [
            {
              "internalType": "string",
              "name": "name",
              "type": "string"
            },
            {
              "internalType": "uint256",
              "name": "voteCount",
              "type": "uint256"
            }
          ],
          "internalType": "struct Voting.Candidate[]",
          "name": "",
          "type": "tuple[]"
        }
      ],
      "stateMutability": "view",
      "type": "function"
    }
  ],
  "bytecode": "0x60806040523480156200001157600080fd5b5060405162000e8d38038062000e8d8339818101604052810190620000379190620002c3565b60005b81518110156200010757600160405180604001604052808484815181106200008b577f4e487b7100000000000000000000000000000000000000000000000000000000600052603260045260246000fd5b60200260200101518152602001600081525090806001815401808255809150506001900390600052602060002090600202016000909190919091506000820151816000019080519060200190620000e49291906200010f565b506020820151816001015550508080620000fe9062000414565b9150506200003a565b5050620004ef565b8280546200011d90620003de565b90600052602060002090601f0160209004810192826200014157600085556200018d565b82601f106200015c57805160ff19168380011785556200018d565b828001600101855582156200018d579182015b828111156200018c5782518255916020019190600101906200016f565b5b5090506200019c9190620001a0565b5090565b5b80821115620001bb576000816000905550600101620001a1565b5090565b6000620001d6620001d0846200033c565b62000308565b9050808382526020820190508260005b858110156200021a5781518501620001ff888262000296565b845260208401935060208301925050600181019050620001e6565b5050509392505050565b60006200023b62000235846200036b565b62000308565b9050828152602081018484840111156200025457600080fd5b62000261848285620003a8565b509392505050565b600082601f8301126200027b57600080fd5b81516200028d848260208601620001bf565b91505092915050565b600082601f830112620002a857600080fd5b8151620002ba84826020860162000224565b91505092915050565b600060208284031215620002d657600080fd5b600082015167ffffffffffffffff811115620002f157600080fd5b620002ff8482850162000269565b91505092915050565b6000604051905081810181811067ffffffffffffffff82111715620003325762000331620004c0565b5b8060405250919050565b600067ffffffffffffffff8211156200035a5762000359620004c0565b5b602082029050602081019050919050565b600067ffffffffffffffff821115620003895762000388620004c0565b5b601f19601f8301169050602081019050919050565b6000819050919050565b60005b83811015620003c8578082015181840152602081019050620003ab565b83811115620003d8576000848401525b50505050565b60006002820490506001821680620003f757607f821691505b602082108114156200040e576200040d62000491565b5b50919050565b600062000421826200039e565b91507fffffffffffffffffffffffffffffffffffffffffffffffffffffffffffffffff82141562000457576200045662000462565b5b600182019050919050565b7f4e487b7100000000000000000000000000000000000000000000000000000000600052601160045260246000fd5b7f4e487b7100000000000000000000000000000000000000000000000000000000600052602260045260246000fd5b7f4e487b7100000000000000000000000000000000000000000000000000000000600052604160045260246000fd5b61098e80620004ff6000396000f3fe608060405234801561001057600080fd5b506004361061004c5760003560e01c80630121b93f1461005157806306a49fce1461006d5780633477ee2e1461008b578063a3ec138d146100bc575b600080fd5b61006b600480360381019061006691906104a4565b6100ec565b005b61007561027a565b60405161008291906106b2565b60405180910390f35b6100a560048036038101906100a091906104a4565b610375565b6040516100b39291906106ef565b60405180910390f35b6100d660048036038101906100d1919061047b565b610431565b6040516100e391906106d4565b60405180910390f35b6000803373ffffffffffffffffffffffffffffffffffffffff1673ffffffffffffffffffffffffffffffffffffffff16815260200190815260200160002060009054906101000a900460ff1615610178576040517f08c379a000000000000000000000000000000000000000000000000000000000815260040161016f9061071f565b60405180910390fd5b60018054905081106101bf576040517f08c379a00000000000000000000000000000000000000000000000000000000081526004016101b69061073f565b60405180910390fd5b60016000803373ffffffffffffffffffffffffffffffffffffffff1673ffffffffffffffffffffffffffffffffffffffff16815260200190815260200160002060006101000a81548160ff02191690831515021790555060018181548110610250577f4e487b7100000000000000000000000000000000000000000000000000000000600052603260045260246000fd5b9060005260206000209060020201600101600081548092919061027290610872565b919050555050565b60606001805480602002602001604051908101604052809291908181526020016000905b8282101561036c57838290600052602060002090600202016040518060400160405290816000820180546102d190610840565b80601f01602080910402602001604051908101604052809291908181526020018280546102fd90610840565b801561034a5780601f1061031f5761010080835404028352916020019161034a565b820191906000526020600020905b81548152906001019060200180831161032d57829003601f168201915b505050505081526020016001820154815250508152602001906001019061029e565b50505050905090565b6001818154811061038557600080fd5b90600052602060002090600202016000915090508060000180546103a890610840565b80601f01602080910402602001604051908101604052809291908181526020018280546103d490610840565b80156104215780601f106103f657610100808354040283529160200191610421565b820191906000526020600020905b81548152906001019060200180831161040457829003601f168201915b5050505050908060010154905082565b60006020528060005260406000206000915054906101000a900460ff1681565b6000813590506104608161092a565b92915050565b60008135905061047581610941565b92915050565b60006020828403121561048d57600080fd5b600061049b84828501610451565b91505092915050565b6000602082840312156104b657600080fd5b60006104c484828501610466565b91505092915050565b60006104d98383610657565b905092915050565b60006104ec8261076f565b6104f68185610792565b9350836020820285016105088561075f565b8060005b85811015610544578484038952815161052585826104cd565b945061053083610785565b925060208a0199505060018101905061050c565b50829750879550505050505092915050565b61055f816107d7565b82525050565b60006105708261077a565b61057a81856107a3565b935061058a81856020860161080d565b61059381610919565b840191505092915050565b60006105a98261077a565b6105b381856107b4565b93506105c381856020860161080d565b6105cc81610919565b840191505092915050565b60006105e4600d836107b4565b91507f416c726561647920766f746564000000000000000000000000000000000000006000830152602082019050919050565b60006106246011836107b4565b91507f496e76616c69642063616e6469646174650000000000000000000000000000006000830152602082019050919050565b600060408301600083015184820360008601526106748282610565565b91505060208301516106896020860182610694565b508091505092915050565b61069d81610803565b82525050565b6106ac81610803565b82525050565b600060208201905081810360008301526106cc81846104e1565b905092915050565b60006020820190506106e96000830184610556565b92915050565b60006040820190508181036000830152610709818561059e565b905061071860208301846106a3565b9392505050565b60006020820190508181036000830152610738816105d7565b9050919050565b6000602082019050818103600083015261075881610617565b9050919050565b6000819050602082019050919050565b600081519050919050565b600081519050919050565b6000602082019050919050565b600082825260208201905092915050565b600082825260208201905092915050565b600082825260208201905092915050565b60006107d0826107e3565b9050919050565b60008115159050919050565b600073ffffffffffffffffffffffffffffffffffffffff82169050919050565b6000819050919050565b60005b8381101561082b578082015181840152602081019050610810565b8381111561083a576000848401525b50505050565b6000600282049050600182168061085857607f821691505b6020821081141561086c5761086b6108ea565b5b50919050565b600061087d82610803565b91507fffffffffffffffffffffffffffffffffffffffffffffffffffffffffffffffff8214156108b0576108af6108bb565b5b600182019050919050565b7f4e487b7100000000000000000000000000000000000000000000000000000000600052601160045260246000fd5b7f4e487b7100000000000000000000000000000000000000000000000000000000600052602260045260246000fd5b6000601f19601f8301169050919050565b610933816107c5565b811461093e57600080fd5b50565b61094a81610803565b811461095557600080fd5b5056fea26469706673582212202f393fc43d7007ae9bc135ff2c8df71e85bf8029cb1669665ecb7c31c2be24ab64736f6c63430008000033",
  "immutableReferences": {},
  "source": "// SPDX-License-Identifier: MIT\r\npragma solidity ^0.8.0;\r\n\r\ncontract Voting {\r\n    struct Candidate {\r\n        string name;\r\n        uint voteCount;\r\n    }\r\n\r\n    mapping(address => bool) public voters;\r\n    Candidate[] public candidates;\r\n\r\n    constructor(string[] memory candidateNames) {\r\n        for (uint i = 0; i < candidateNames.length; i++) {\r\n            candidates.push(Candidate(candidateNames[i], 0));\r\n        }\r\n    }\r\n\r\n    function vote(uint candidateIndex) public {\r\n        require(!voters[msg.sender], \"Already voted\");\r\n        require(candidateIndex < candidates.length, \"Invalid candidate\");\r\n\r\n        voters[msg.sender] = true;\r\n        candidates[candidateIndex].voteCount++;\r\n    }\r\n\r\n    function getCandidates() public view returns (Candidate[] memory) {\r\n        return candidates;\r\n    }\r\n}\r\n",
  "sourcePath": "C:\\Users\\anky9\\OneDrive\\Desktop\\blockchain-voting-system\\contracts\\Voting.sol",
  "compiler": {
    "name": "solc",
    "version": "0.8.0+commit.c7dfd78e.Emscripten.clang"
  },
  "schemaVersion": "3.4.16",
  "updatedAt": "2025-01-21T17:07:11.326Z",
  "devdoc": {
    "kind": "dev",
    "methods": {},
    "version": 1
  },
  "userdoc": {
    "kind": "user",
    "methods": {},
    "version": 1
  }
}